{
  "contractName": "TurkishElections",
  "abi": [
    {
      "inputs": [
        {
          "name": "_voterA",
          "type": "address"
        },
        {
          "name": "_voterB",
          "type": "address"
        },
        {
          "name": "_voterC",
          "type": "address"
        },
        {
          "name": "_voterD",
          "type": "address"
        },
        {
          "name": "_voterE",
          "type": "address"
        }
      ],
      "payable": false,
      "stateMutability": "nonpayable",
      "type": "constructor"
    },
    {
      "constant": false,
      "inputs": [
        {
          "name": "_option",
          "type": "uint256"
        }
      ],
      "name": "vote",
      "outputs": [],
      "payable": false,
      "stateMutability": "nonpayable",
      "type": "function"
    },
    {
      "constant": true,
      "inputs": [
        {
          "name": "_option",
          "type": "uint256"
        }
      ],
      "name": "getTotalVotes",
      "outputs": [
        {
          "name": "total",
          "type": "uint256"
        }
      ],
      "payable": false,
      "stateMutability": "view",
      "type": "function"
    },
    {
      "constant": true,
      "inputs": [
        {
          "name": "voter",
          "type": "address"
        }
      ],
      "name": "validateVoter",
      "outputs": [
        {
          "name": "result",
          "type": "bool"
        }
      ],
      "payable": false,
      "stateMutability": "view",
      "type": "function"
    },
    {
      "constant": true,
      "inputs": [
        {
          "name": "option",
          "type": "uint256"
        }
      ],
      "name": "validateOption",
      "outputs": [
        {
          "name": "result",
          "type": "bool"
        }
      ],
      "payable": false,
      "stateMutability": "pure",
      "type": "function"
    }
  ],
  "bytecode": "0x6080604052635d0f1560600755635d0f85e060085534801561002057600080fd5b5060405160a0806108dd833981018060405260a081101561004057600080fd5b81019080805190602001909291908051906020019092919080519060200190929190805190602001909291908051906020019092919050505084600260006101000a81548173ffffffffffffffffffffffffffffffffffffffff021916908373ffffffffffffffffffffffffffffffffffffffff16021790555083600360006101000a81548173ffffffffffffffffffffffffffffffffffffffff021916908373ffffffffffffffffffffffffffffffffffffffff16021790555082600460006101000a81548173ffffffffffffffffffffffffffffffffffffffff021916908373ffffffffffffffffffffffffffffffffffffffff16021790555081600560006101000a81548173ffffffffffffffffffffffffffffffffffffffff021916908373ffffffffffffffffffffffffffffffffffffffff16021790555080600660006101000a81548173ffffffffffffffffffffffffffffffffffffffff021916908373ffffffffffffffffffffffffffffffffffffffff160217905550505050505061070b806101d26000396000f3fe608060405260043610610062576000357c0100000000000000000000000000000000000000000000000000000000900463ffffffff1680630121b93f146100675780632ce35e11146100a25780639f381f8c146100f1578063a1dd76f41461015a575b600080fd5b34801561007357600080fd5b506100a06004803603602081101561008a57600080fd5b81019080803590602001909291905050506101ad565b005b3480156100ae57600080fd5b506100db600480360360208110156100c557600080fd5b81019080803590602001909291905050506104c4565b6040518082815260200191505060405180910390f35b3480156100fd57600080fd5b506101406004803603602081101561011457600080fd5b81019080803573ffffffffffffffffffffffffffffffffffffffff1690602001909291905050506104e1565b604051808215151515815260200191505060405180910390f35b34801561016657600080fd5b506101936004803603602081101561017d57600080fd5b810190808035906020019092919050505061069b565b604051808215151515815260200191505060405180910390f35b6007544210151515610227576040517f08c379a000000000000000000000000000000000000000000000000000000000815260040180806020018281038252601c8152602001807f456c656374696f6e206973206e6f74207374617274656420796574210000000081525060200191505060405180910390fd5b60085442111515156102a1576040517f08c379a00000000000000000000000000000000000000000000000000000000081526004018080602001828103825260118152602001807f456c656374696f6e206973206f7665722100000000000000000000000000000081525060200191505060405180910390fd5b6102aa336104e1565b151561031e576040517f08c379a000000000000000000000000000000000000000000000000000000000815260040180806020018281038252600f8152602001807f496e74727564657220616c65727421000000000000000000000000000000000081525060200191505060405180910390fd5b60008060003373ffffffffffffffffffffffffffffffffffffffff1673ffffffffffffffffffffffffffffffffffffffff168152602001908152602001600020541415156103d4576040517f08c379a00000000000000000000000000000000000000000000000000000000081526004018080602001828103825260178152602001807f4475706c696361746520766f74696e6720747269616c2100000000000000000081525060200191505060405180910390fd5b6103dd8161069b565b1515610451576040517f08c379a00000000000000000000000000000000000000000000000000000000081526004018080602001828103825260128152602001807f496e76616c69642063616e64696461746521000000000000000000000000000081525060200191505060405180910390fd5b806000803373ffffffffffffffffffffffffffffffffffffffff1673ffffffffffffffffffffffffffffffffffffffff1681526020019081526020016000208190555060018060008381526020019081526020016000205401600160008381526020019081526020016000208190555050565b600060016000838152602001908152602001600020549050919050565b6000600260009054906101000a900473ffffffffffffffffffffffffffffffffffffffff1673ffffffffffffffffffffffffffffffffffffffff168273ffffffffffffffffffffffffffffffffffffffff16148061058c5750600360009054906101000a900473ffffffffffffffffffffffffffffffffffffffff1673ffffffffffffffffffffffffffffffffffffffff168273ffffffffffffffffffffffffffffffffffffffff16145b806105e45750600460009054906101000a900473ffffffffffffffffffffffffffffffffffffffff1673ffffffffffffffffffffffffffffffffffffffff168273ffffffffffffffffffffffffffffffffffffffff16145b8061063c5750600560009054906101000a900473ffffffffffffffffffffffffffffffffffffffff1673ffffffffffffffffffffffffffffffffffffffff168273ffffffffffffffffffffffffffffffffffffffff16145b806106945750600660009054906101000a900473ffffffffffffffffffffffffffffffffffffffff1673ffffffffffffffffffffffffffffffffffffffff168273ffffffffffffffffffffffffffffffffffffffff16145b9050919050565b600060018214806106ac5750600282145b806106b75750600382145b806106c25750600482145b806106cd5750600582145b806106d85750600682145b905091905056fea165627a7a72305820ae1362b1ba5d6c95f2180d873e5893578817ca1cb3297ab08ee6bb4e62cd62ae0029",
  "source": "pragma solidity 0.5.0;\n\ncontract TurkishElections {\n    // An address array for storing votes\n    mapping(address => uint) private votes;\n\n    // An integer array for storing total results\n    mapping(uint => uint) private totals;\n\n    // Definition of 4 voters for demo purpose\n    // todo: Get voter information from Turkish Supreme Election Council (SEC) database\n    address voterA;\n    address voterB;\n    address voterC;\n    address voterD;\n    address voterE;\n    \n    // Definition of election start & end dates as UNIX Timestamp\n    // todo: Get election information via API provided by SEC\n    uint start = 1561269600; // Sunday, 23 June 2019 09:00:00 GMT+03:00\n    uint end = 1561298400; // Sunday, 23 June 2019 17:00:00 GMT+03:00\n\n    // todo: Modify the constructor according to the data provided by SEC\n    constructor(address _voterA, address _voterB, address _voterC, address _voterD, address _voterE) public {\n        voterA = _voterA;\n        voterB = _voterB;\n        voterC = _voterC;\n        voterD = _voterD;\n        voterE = _voterE;\n    }\n\n    // Definition of vote() function with 6 options for demo purpose\n    // todo: Get party/candidate information from SEC database\n    function vote(uint _option) public {\n        // Validate date and time\n        require(now >= start, \"Election is not started yet!\");\n        require(now <= end, \"Election is over!\");\n        \n        // Validate voter\n        require(validateVoter(msg.sender), \"Intruder alert!\");\n        \n        // Validate if user has not voted before\n        // todo: Validate user vote via API provided by SEC\n        require(votes[msg.sender] == 0, \"Duplicate voting trial!\");\n        \n        // Validate options\n        require(validateOption(_option), \"Invalid candidate!\");\n\n        // Save user vote\n        votes[msg.sender] = _option;\n\n        // Save total votes\n        totals[_option] = totals[_option] + 1;\n    }\n\n    // Definition of getTotalVotes() function to show total results\n    function getTotalVotes(uint _option) view public returns (uint total) {\n        return totals[_option];\n    }\n    \n    // Definition of validateVoter() function to validate voter\n    // todo: Validate voter via APIs provided by SEC and Turkish Central Civil Registration System (MERNIS)\n    function validateVoter(address voter) view public returns (bool result){\n        return (voter == voterA || voter == voterB || voter == voterC || voter == voterD || voter == voterE);\n    }\n    \n    // Definition of validateOption() function to validate option\n    // todo: Validate options via API provided by SEC\n    function validateOption(uint option) pure public returns (bool result){\n        return (option == 1 || option == 2 || option == 3 || option == 4 || option == 5 || option == 6);\n    }\n}\n",
  "sourcePath": "/home/yener/quorum-election/contracts/TurkishElections.sol",
  "compiler": {
    "name": "solc",
    "version": "0.5.0+commit.1d4f565a.Emscripten.clang"
  },
  "schemaVersion": "3.0.9",
  "updatedAt": "2019-05-21T10:00:56.661Z",
  "devdoc": {
    "methods": {}
  },
  "userdoc": {
    "methods": {}
  }
}